:100000000C9449000C9400000C9400000C94000027
:100010000C9400000C9400000C9400000C94000060
:100020000C9400000C9400000C9400000C94000050
:100030000C9400000C9400000C9400000C94000040
:100040000C9400000C9400000C9400000C94000030
:100050000C9400002A2B000001000000803F252E98
:100060003266000080C001002D4E414E00494E46D0
:1000700000002D4E414E0000060004005400040014
:1000800064025A0002008C026400010090026600C3
:100090000000F894EE27ECBBF1E0FBBFEBBFE5BF3F
:1000A0008DE0A2E0BB27ED938A95E9F780E098E028
:1000B000A0E6ED930197E9F7E8E7F0E085919591E7
:1000C000009761F0A591B59105901590BF01F001E1
:1000D00005900D920197E1F7FB01F0CFEFE5EDBF41
:1000E000E8E0EEBFC0E6D2E00C94A900AA93E88154
:1000F000F0E0EA32A0E0FA0729F40E94D1060E945B
:10010000500925C0EF32A0E0FA0729F40E94D10679
:100110000E949E091CC0EB32A0E0FA0729F40E945D
:10012000D1060E94000913C0ED32A0E0FA0759F48D
:10013000A981BA818B819C81ED81FE816F81788557
:100140000E94F90804C0E0E0F0E060E87FEB299647
:100150000895EFEFE4BBEFE0E1BBE0E0E5BBA0E139
:1001600054D121D19ED01E2F1F3F09F498C099D0A1
:10017000EF3FE9F7A4E1B0E00E945008133421F406
:1001800012D10E94DA068BC01D33A1F5E1E0F0E048
:10019000E615F70519F00E94010709F42AC00E942C
:1001A00006070E9411070E9430070E9406070E945E
:1001B0003B07E0E0E0936402E0936502E0936602AF
:1001C000E0936702ECE6F2E0FA93EA93EEE5F0E002
:1001D000FA93EA930E94300784E00E942F06289643
:1001E000E0E0EA93A1E0D2D0ACE6B2E0FDD00E941C
:1001F000DA0655C01F3231F01A3221F01D3211F0EB
:100200001B3291F5E1E0F0E0E615F70519F00E94E8
:10021000010709F428C01F3211F01A3231F40E948C
:1002200006070E941107412E19C00E9406070E946E
:1002300011070E9430070E9406070E943B07E0E07A
:10024000F0E060E87FE3E0936402F093650260937E
:10025000660270936702512EEAE24E2EA12FAFD0B4
:10026000E1E0F0E03F011BC00E94010709F49BD0D0
:100270008824992466247724A12FA1D00E944707BF
:100280000E9450070E945707E12FF0E0F0970E946C
:1002900047070E9460070E9400090E94570762CF2B
:1002A000FFCF1A931FEF909A91980E946507849B45
:1002B00002C017E30AC0859B02C018E306C0869BF4
:1002C00002C019E302C087991FE29098919A0E9498
:1002D0006507849B02C014E30AC0859B02C015E336
:1002E00006C0869B02C016E302C087991AE2909866
:1002F0009198929A9398A5E0B0E00E945008849B50
:1003000002C011E30AC0859B02C012E306C0869BAF
:1003100002C013E302C087991DE2909891989298C9
:10032000939AA5E0B0E00E945008849B02C013E4B9
:100330000AC0859B02C010E306C0869B02C01DE375
:1003400002C087991BE2E12F19910895AA93E5B3A2
:10035000EF70AE2FE881E07FEA2BE5BB8DE08A9558
:10036000F1F7AA9A8DE08A95F1F7AA988DE08A951F
:10037000F1F777C0AA93A881E9DFE881E295E883E5
:10038000A881E4DF85E88A95F1F76BC0AA93E8813C
:10039000F0E0E457FD4FE081A981AE0FEBDFB980BB
:1003A000A88022960895A2E00E946B07ACE0E2DFED
:1003B000A1E00E946B07E0E0AE2EBE2E0895AA9346
:1003C000A881AA3011F0BD1448F0E0E0EA93A394AC
:1003D000AA2DDCDFA881AA3009F443C0B394A89AFF
:1003E000A881C8DFA8983DC0BA93AA931A93A9819F
:1003F000BA81ED91A983BA831E2FE03019F0A12FA5
:10040000DEDFF5CF188123960895AA93E4B3E06F59
:10041000E4BBA29AA09AA19AAA98A898A998D88071
:10042000E881E058E0938E02E881E054E0938F0287
:10043000A4E1B0E00E9450080E9471070E94710779
:100440000E947107A0E282DF88EC90E00197F1F74B
:10045000A8E290DFA4E08EDFA5E88CDFA6E08ADFCB
:10046000A2DF219608950E947907E0E0EA83EFE396
:10047000EB831A930A93EB85FC85EF3FAFEFFA0706
:1004800039F40E948007A8E6B0E00E94AB06A9C03C
:10049000EF3FAFE7FA0739F40E948007A9E6B0E022
:1004A0000E94AB069EC0AC85AA2362F4E985FA855A
:1004B0006B857C850E945A080E9485070E948A07E6
:1004C000EDE2EC93A885A73010F0E6E0E887188508
:1004D000E12F1150E03039F00E9491070E949607F9
:1004E0000E949D07F5CF0E94A2070E9400090E946A
:1004F000850710E0E0E0F0E060E87FE30E949D0700
:100500000E94A2070E94E30988F00E9491070E94BE
:1005100050070E949D071F5F173238F00E94800726
:10052000ADE6B0E00E94AB065CC0EACF103029F423
:100530000E948A07E0E3EC9329C0E12F1150E030DC
:1005400029F10E9491070E9496070E94AB07DF01E4
:10055000CB010E9494060E949D070E94A2070E9460
:100560009E090E948D080E2F0E948A07E02FE05DF1
:10057000EC93E02FF0E00E9491070E9460070E9438
:1005800050090E94B2070E94B707D7CFE885E03034
:1005900021F10E948A07EEE2EC93E885E150E887BA
:1005A000EF5FD9F00E94B2070E9450070E948507B2
:1005B000E985FA856B857C850E948D080E2F0E9447
:1005C0008A07E02FE05DEC93E02FF0E00E94B20795
:1005D0000E9460070E94B707E0CFAE81BF81E0E0D4
:1005E000EC93198108812D960895BA93AA931A93D2
:1005F0000A93AA81BB8112960E946E0A309729F154
:10060000AA81BB8114960E946E0A8F01309761F017
:100610000230E0E01E0780F0F80131978F01AA81D7
:10062000BB811496ED93FC93AA81BB8112960E9424
:10063000BC073197AC81A083AA81BB810E946E0A5E
:10064000FF2312F00E94BC0706C0AA81BB81EFEF16
:10065000FFEFED93FC9319810881259608950E9480
:100660007907E0E8EA83EFE3EB830E94A40AEE85D2
:10067000FF85EF3FAFEFFA0749F4E885F985FA9374
:10068000EA93A2E7B0E00E94AB06CBC0EF3FAFE732
:10069000FA0749F4E885F985FA93EA93A3E7B0E00D
:1006A0000E94AB06BEC0AB85A73010F0E6E0EB873A
:1006B0001B85E12F1150E03029F00E94C2070E94F3
:1006C000C707F7CFEC85FD856E857F850E949E0A62
:1006D00031F430E00E94C2070E94C70737C03B8553
:1006E0000E94CC0709F008F410C00E94C2070E94C3
:1006F000C7070E94CC0740F00E94D7070E949607C8
:100700000E94DC073F5FF5CF0FC00E94CC0740F48A
:100710000E94D7070E9450070E94DC073150F5CF96
:100720000E94C2070E94C707EC85FD856E857F8504
:100730000E94AB070E94DC070E94CC0738F00E94A1
:10074000D7070E9496070E94DC073F5F10E0EB8509
:10075000E117D8F1AC81BD818E819F810E949607FF
:100760000E94AB07DF01CB010E9494060E94C707DD
:10077000EC81FD816E817F810E94D7070E949E09D6
:100780000E948D080E2F0E94E107E02FE05DEC93A0
:10079000E02FFF27662777270E94C608AC81BD811E
:1007A0008E819F810E9450090E94D7070E94910A62
:1007B0000E94F9080E94DC07E12F1F5FE03039F644
:1007C0000E94E107EEE2EC93C2CF0E94E807319766
:1007D000AA85A08330302CF43195A885B985EDE247
:1007E00003C0A885B985EBE2EC930E94E8070E945C
:1007F000E8073197BF01A32FEAE00E94280AE05DD5
:10080000DB01EC930E94E8073197BF01A32FEAE0D8
:100810000E94520AE05DDB01EC93A885B985E0E017
:10082000EC930E94AB0A60960895BA93AA93EF974F
:1008300061970E94A20A10E0FE01E85AFF4F019062
:10084000F081E02DE887F987FE01EA5AFF4F019019
:10085000F081E02DEE83FF83AE81BF81E0E0F0E028
:10086000ED93FC93DE01A45ABF4F0E94BC07319761
:10087000E4912E2FE03009F4E9C1E12FE03039F4A2
:10088000253211F411E002C00E94EE07DEC1E13012
:10089000C1F4253219F40E94EE07D6C112E0E0E05F
:1008A000ED8B00E02D3211F401E0CFC12B3219F4B1
:1008B000EBE2ED8BCAC1203219F4E0E2ED8BC5C149
:1008C00002C0E23039F450E013E0203311F4006844
:1008D000BCC102C0E33091F4203310F02A3308F099
:1008E00007C0AAE05A9F502DE22FE0535E0FADC122
:1008F00040E02E3211F414E0A8C10FC0E43099F4A6
:10090000203310F02A3308F008C00062AAE04A9FA2
:10091000402DE22FE0534E0F98C12C3619F402609F
:1009200015E093C103C0E53009F08FC1E22FE33633
:1009300059F40E94F5070E94FC070E94F507A48164
:10094000AA930E94030880C1E53411F0E53609F44A
:1009500003C0E63609F048C0FE017696EE87FF87B1
:100960000E9409080E94720A0E9410080E9415083D
:10097000AD85AA2332F0AD89AB3259F0A03281F0B7
:1009800017C00E9417080E945A080E941008EDE242
:10099000ED8B07FF05C0ED89EA930E94030808C0AC
:1009A000EE85FF853196EE87FF873197AD89A0836D
:1009B00005FF46E0263651F40E9417080E94870A78
:1009C0004A93AB89BC890E94330209C00E94170870
:1009D0000E94870A4A932A93AC89BD8940DEFE01B2
:1009E00076960E941C081EC0E33739F40E94150851
:1009F0000E9424080E941C080EC0E037C1F40E9427
:100A000015080E942408EE87FF87AE85BF850E94E7
:100A1000C4061E2F08600F77403011F0411708F010
:100A200001C0142F40E0E0E0EC8B30E06DC0E43614
:100A300011F0E93611F4046002C0E537A1F4EAE0F0
:100A4000EC8B01FF08C0E0E0FAEC6AE97BE30E946E
:100A500029081AE022C0E0E1F7E260E070E00E94BD
:100A6000290815E01AC0E83511F4086003C0E8371A
:100A700009F0EAC0E0E1EC8B01FF08C0E0E0F0E043
:100A800060E070E10E94290818E007C0E0E0F0E1B2
:100A900060E070E00E94290814E0403011F00F7708
:100AA00001C041E001FF08C00E9415080E9409082A
:100AB00014960E94720A0FC002FF07C00E94150818
:100AC0000E9424080E94150A06C00E9415080E9470
:100AD000240866277727EA87FB876C877D8702FFD4
:100AE00012C0AD85AA2342F40E9417080E94070A8B
:100AF0000E941008EDE2ED8BED89E03019F01F5FE8
:100B00004F5F01C00B7F342F00FD14C0151710F488
:100B1000351708F00FC007FF08C002FF04C00B7FA5
:100B20002D89115001C020E301C020E20E94EE0790
:100B30005150ECCF141790F4006102FF06C00E94E0
:100B40002E0809F0515011504150E0E3EA930E9401
:100B50000308503009F051504150ECCF312FEC894F
:100B6000E030B9F43030A1F003FF06C0EE85FF8518
:100B70002591EE87FF8705C0AE85BF852D91AE8795
:100B8000BF870E94EE07503009F051503150EACF34
:100B900051C00E9440080E942D0A2E2F2A3030F0AA
:100BA00003FF02C0295C01C0295A01C0205D04FD79
:100BB00021C0213360F4A889B9898A899B89A13031
:100BC000E0E0BE07E0E08E07E0E09E0709F40BC01E
:100BD000431740F4531710F000FF01C010C020E28B
:100BE00007FF08C020E3006102FF04C00E942E0836
:100BF00009F051500E94EE07503009F05150315029
:100C00000E9440080E945E0A0E941008EC89A88990
:100C1000B9898A899B89FF27662777270E942D0A31
:100C20000E942908E889F9896A897B890E949E0ABD
:100C300009F0AFCF00FF08C0503031F05150E0E272
:100C4000EA930E940308F8CF10E00CCEAE81BF817A
:100C50000E946E0A0E94A90AEF966F960895FF926D
:100C6000F82E26970E94A40A0E944908309719F48A
:100C7000EFEFFFEF23C0DE0116960E94030A8D01FD
:100C80000E944908EE83FF83E0E0E887E987DE0100
:100C90001A960E94030A0E946E0AFA93EA931A9324
:100CA0000A93E5EFF2E0FA93EA93DE011A96BDDDCE
:100CB0009F01AE81BF81E0E0EC93F9010E94AB0A95
:100CC0002A96FF9008950E948C0A7B816A81F9819F
:100CD000E88177FB770F67FD7160972F9E5781F052
:100CE00078F0983190F4AA27BB2788270894879535
:100CF000B795A7959A95D1F7EA23FB23682305C0FA
:100D0000E8947727EE27FF2766276F77769508F414
:100D1000606877F9A991B99189919991EA17FB07D0
:100D20006807790797FB08950E948C0A0E947D0A44
:100D30000E9463060E94820A19F40E94780A09C080
:100D4000E6F70E94780AA0E0B0E080E89FE30E9406
:100D5000F90824960895BA93AA93E991F991A99173
:100D6000B991CD0105900D920020E1F7FC010895A5
:100D7000BA93AA93A991B991EE27FF276D916623A3
:100D800011F03196FBCF0895BA93AA93AA27BB27F7
:100D9000E991F9910590002011F01196FBCFFD012A
:100DA0000895E981FA816B817C81AD81BE818F815B
:100DB00098850895E0E0E0936002E0936102E0939B
:100DC0006202E0936302E0E0F0E060E87FE3E0933A
:100DD0006402F09365026093660270936702E09389
:100DE0006802E0936902E0936A02E0936B02EBE22F
:100DF0005E2EEAE24E2E66247724E1E0F0E04F0119
:100E00000895E1E0F0E0E815F9050895E091640245
:100E1000F091650260916602709167020E94870AF4
:100E20000895E0916802F091690260916A02709100
:100E30006B020E94870AA42D0E947600E093640250
:100E4000F09365026093660270936702E0E0E093BE
:100E50006802E0936902E0936A02E0936B020895EE
:100E6000E0916002F0916102609162027091630210
:100E70000E94870A0895A52D0E947600E0936002E3
:100E8000F093610260936202709363020895A091EF
:100E90006802B091690280916A0290916B02089594
:100EA000E0E0F0E060E271E40E9450090895E09310
:100EB0006802F093690260936A0270936B0208956E
:100EC0000E94150A0E94C608089592989398A5E07A
:100ED000B0E00C9450080E94BA01A3E0B0E00C947A
:100EE0005008A0E30E94A60188EC90E00197F1F77A
:100EF0000895BA93AA932497E0E0E883E9830895DC
:100F0000EE81FF81FA93EA930895E987FA876B8768
:100F10007C870895AE81BF811196AE83BF83119700
:100F20000895AA81BB818C819D810895EDECFCEC34
:100F30006CEC7DE30E9450090895EA83FB836C8387
:100F40007D830895EA81FB816C817D81A985BA85C5
:100F50008B859C850895A0E0B0E080E09FE30E942F
:100F600000090895A985BA858B859C8508950E94FE
:100F7000910A0E94F908C9CFED91FD913196FE9337
:100F8000EE930895AC81BD818E819F8189CFEC83E2
:100F9000FD836E837F830895EC81FD816E817F8167
:100FA000AC85BD858E859F850E94E3090895AC853B
:100FB000BD858E859F850895EC87FD876E877F8729
:100FC0000895A885B9851196A887B98711970895BE
:100FD000E885F9853196E887F98708952A93AF81E6
:100FE000B885E985FA8509950895FE01E65AFF4F0F
:100FF0000190F081E02D08953497DE01A65ABF4F8D
:10100000ED93FC930895AF81B885E985FA8509953C
:101010000895DE01A65ABF4F0D90BC91A02D0895F2
:10102000EA87FB876C877D870895DFDFE5CFEA8558
:10103000FB856C857D850895EE87FF87AE85BF852E
:101040000E94B8061E2F0895E4DF14960E946E0ACF
:101050000895E88BF98B6A8B7B8B08950B7FED8964
:10106000EA93DE01A95ABF4F0D90BC91A02DFE015D
:10107000E75AFF4F0190F081E02D09955030089517
:10108000E889F9896A897B89AA85BB858C859D85D4
:101090000895DE011C960E94030A0E946E0A0895BC
:1010A000109639F080ED97E00197F1F7A895119728
:1010B000C9F7089530976040704009F0705808955E
:1010C000552342F4503811F4E0FF04C03196691FF3
:1010D000791F6BF050E8572711F45F93CFC05F3F43
:1010E00031F0660F000C57956795752F08955F9343
:1010F00000200AF0CFC0C8C050E8192E1522880F72
:10110000991F9527550F879550E8072E0522660FE2
:10111000771F7527550F67950895689401C0E89467
:101120005F93F2DF703818F07F3F08F4A7C056E1F4
:10113000571BAAF4519558300EF4593030F0EFEFA8
:10114000FFEF6FEF7FE777F91AC077275523B9F0E4
:10115000EE0FFF1F661F771F5A95D1F710C0772734
:10116000583028F0EF2FF62F672F5850F9CF55231E
:1011700031F076956795F795E7955A95D1F7002068
:101180000AF445D15F910895689401C0E8943097BE
:1011900060407040B1F0002426F0772312F40094F0
:1011A00036D1172E7EE1112032F07A95EE0FFF1F17
:1011B000661F111CF9CFEF2FF62F612D5F938ADF89
:1011C0005F9108954F93AF01FD01DA01AB01BC01BE
:1011D000CA01402D012C142E4F910895EA0FFB1FD8
:1011E000681F0895E095F0956095EF5FFF4F6F4F92
:1011F00008955F9381DF903871F150E8152604C09F
:101200005F937ADF903839F1703821F1572F591BED
:101210002BF112F4D7DFFACF583118F0AA27BB27E9
:101220008827583028F0AB2FB82F88275850F9CF8F
:10123000552329F08695B795A7955A95D9F7502D3E
:10124000512572F0CBDF38F46795F795E7957395E4
:1012500013F420C0B7DF3EDF5F910895D8F7FBCFCE
:10126000EA1BFB0B680B51F010F40094BBDF662304
:1012700092F3EE0FFF1F661F7A95CBF7EE27FF273D
:10128000662777275F910895EFEFFFEF6FE77FEF16
:101290005F910895EFEFFFEF6FE77FE75F910895AC
:1012A0005F932ADF703851F3903841F3012408949A
:1012B000791F23F41CF300203AF3ECCF0F921F9315
:1012C0002F933F934F93112722279927689FA001BF
:1012D0008F9F302D410D591F6B9F300D411D591FA0
:1012E0008E9F27D0BF9F25D06A9F23D0BE9F1DD041
:1012F000AF9F1BD0AE9F110D291F391F491F591FCA
:10130000E32FF42F652F522F4F913F912F911F9173
:101310000F9066232AF0550FEE1FFF1F661F02C0B5
:1013200073954BF2CDDE5F910895100D211D391F8D
:1013300002C0200D311D491F591F08955F93DCDE47
:10134000703821F411200AF49FCFA4CF903809F40B
:1013500095CF01240894970B1BF4D4F30020F3CF0E
:10136000792F1F932F933F934F93112411272227F7
:1013700033274427552790E2AE17BF07860741075A
:1013800030F0AE1BBF0B860B410B089401C0889454
:10139000551F221F331F111CAA1FBB1F881F441F6C
:1013A0009A9551F7F901612D4F913F912F911F911E
:1013B000662332F0550FEE1FFF1F661F7A9543F22A
:1013C0007FDE5F91089599239AF0772342F0971773
:1013D00048F029F4AE17BF07860720F031F0989443
:1013E000889408959894089408951894889408957A
:1013F0007723C2F7971798F3A9F7EA17FB0768074F
:1014000088F399F3ECCF0024AF0DB01D0895F0954B
:1014100060957095E195FF4F6F4F7F4F0895FE2FB8
:10142000FF0FFF0B6F2F7F2F08956F2F660F660B37
:10143000762F0895002498E0AA0F001C0E1A10F4CD
:101440000E0E01C0A1609A95B9F7EA2FA02D08955C
:1014500039D0F0DF0EF4E19508953F934F935F93F9
:10146000002411244427552730E2AA0FBB1F881FF0
:10147000991F001C111C441F551F0E1A1F0A460BF2
:10148000570B28F40E0E1F1E461F571F01C0A160E8
:101490003A9559F7FD01BC01D001CA015F914F9106
:1014A0003F910895E894A7FF02C0A1956894E7FDD5
:1014B000E195C0DFEA2F0EF4E1950895CEDFFD013E
:1014C000BC010895E894E7FF02C0E1956894A7FF86
:1014D00004C0A19500F8039400FA0895ED91FC91E1
:1014E00011970895ED91FD916D917C911397089559
:1014F000E881F9816A817B810895A881B9818A8117
:101500009B810895E883F9836A837B8308957A93A6
:101510006A93FA93EA9308959A938A93BA93AA9353
:101520000895182E862F612D192E972F712D1B2EA1
:10153000BF2FF12D1A2EAE2FE12D08953097604068
:10154000704008955A934A933A932A931A930A93B0
:1015500008955D814C813B812A811981088108951C
:00000001FF
