:0C0000000C944C000C9400000C940000C8
:10000C000C9400000C9400000C9400000C94000064
:10001C000C9400000C9400000C9400000C94000054
:10002C000C9400000C9400000C9400000C94000044
:10003C000C9400000C9400000C9400000C94000034
:10004C000C9400000C9400001027E80364000A00D4
:10005C00010000100001100001004C4D33352053FD
:10006C00656E736F720025640054656D703A2000E4
:10007C0080C00C006002660007006C027500020074
:10008C0073027A00020075027C000000F894EE27DF
:10009C00ECBBF1E0FBBFEBBFE5BF8DE0A2E0BB2703
:1000AC00ED938A95E9F780E098E0A0E6ED9301974F
:1000BC00E9F7EEE7F0E085919591009761F0A59155
:1000CC00B59105901590BF01F00105900D92019727
:1000DC00E1F7FB01F0CFEFE5EDBFE8E0EEBFC0E6E6
:1000EC00D2E00C94C300AA93E881E06CE7B98BE1F1
:1000FC008A95F1F7369A349BFECF349AE4B1F5B178
:10010C000C94C803BA93AA93E0E9E2BBA4E6B0E06E
:10011C000E942E04E0E80E94E303E0EC0E94E3035B
:10012C00E0E40E94E303E0E60E94E303E0E20E94C5
:10013C00E303E0E30E94E303E0E10E94E3030C9499
:10014C006803BA93AA93E9E00E94E303E8E00E94F3
:10015C00E303ECE00E94E303E4E00E94E303E6E047
:10016C000E94E303E2E00E94E303E3E00E94E30366
:10017C00E1E00E94E3030C946803289721E030E04F
:10018C0044E853E0EFEFE1BBE0E0E2BBE0ECE7B9C1
:10019C00E3E8E6B9E0E0E0BFA0E10E949C030E9426
:1001AC006A03A4EFB1E00E942E04E1E0EA93A0E020
:1001BC000E945D03A0E6B2E00E948B03A0E093DFF7
:1001CC000E9440048F01FE01FA93EA93E8E0F0E00C
:1001DC00FA93EA93E2E7F0E0FA93EA93F8016627E0
:1001EC0077270E94730484E00E9402032A96E1E0C0
:1001FC00EA93A1E00E945D03ACE6B2E00E948B039F
:10020C00DE010E948B030436E0E01E0720F4A3E716
:10021C00B2E00E948B03EAE0EA93A1E00E945D0346
:10022C00AFED0E947603A3E60E947603F901E1305C
:10023C00A0E0FA0769F40432E0E01E0710F025E1B3
:10024C0030E00F30E0E01E0710F423E030E037C060
:10025C00E531A0E0FA0769F40931E0E01E0710F47B
:10026C0021E030E00932E0E01E0710F026E130E03A
:10027C0026C0E631A0E0FA0769F40332E0E01E077D
:10028C0010F425E130E00E32E0E01E0710F027E11B
:10029C0030E015C0E731A0E0FA0739F40832E0E0AD
:1002AC001E0710F426E130E00AC0E330A0E0FA07A4
:1002BC0031F40F31E0E01E0710F021E030E0F901DD
:1002CC00E531A0E0FA0731F4DA01E2E0F0E00E9457
:1002DC00E8031BC0E631A0E0FA0731F4DA01E6E0EE
:1002EC00F0E00E94E80311C0E731A0E0FA0731F416
:1002FC00DA01EAE0F0E00E94E80307C0E330A0E096
:10030C00FA0719F4A4E6B0E0FDDE58CFFFCFFFCF1B
:10031C00BA93AA931A930A93AA81BB8112960E944C
:10032C006B04309759F1AA81BB8114960E946B041F
:10033C008F01309761F00230E0E01E0798F0F80171
:10034C0031978F01AA81BB811496ED93FC93AA81FE
:10035C00BB811296ED91FD913196FE93EE93319700
:10036C00AC81A083AA81BB810E946B04FF232AF07D
:10037C00ED91FD913196FE93EE9306C0AA81BB815F
:10038C00EFEFFFEFED93FC9319810881259608950B
:10039C00BA93AA9326970E94780410E0AC85BD8589
:1003AC00E0E0F0E0ED93FC93EA89FB893196EA8B6F
:1003BC00FB8B3197E4912E2FE03009F415C1E12F1E
:1003CC00E03039F4253211F411E002C00E94ED0343
:1003DC000AC1E130A9F4253219F40E94ED0302C1DF
:1003EC0012E040E000E02D3211F401E0FCC02B32B1
:1003FC0011F44BE2F8C0203211F440E2F4C002C018
:10040C00E23039F450E013E0203311F40068EBC013
:10041C0003C0E33009F0E7C0203310F02A3308F0B2
:10042C0007C0AAE05A9F502DE22FE0535E0FDBC0AD
:10043C00E22FE33649F40E94F403E889F989A48198
:10044C00AA930E94FA03CEC0E33741F40E94F4034E
:10045C000E9400040E94CA031E2F0AC0E03761F4F8
:10046C000E94F4030E9400040E94D6031E2F086011
:10047C0002600F7730E034C0E43611F0E93611F445
:10048C00046002C0E53731F4E4E5F0E0EE83FF836D
:10049C0015E00CC0E83511F4086003C0E83709F02A
:1004AC00A1C0EEE5F0E0EE83FF8314E002FF14C080
:1004BC000E94F4030E940A04AB85AA233AF4EA854D
:1004CC00FB850E943C04EA87FB874DE2403011F02B
:1004DC001F5F01C00B7F04C00E94F4030E940A043A
:1004EC0000FD11C0151778F407FF08C002FF04C007
:1004FC000B7F242F115001C020E301C020E20E9489
:10050C00ED035150EFCF312F01FF17C03030A1F068
:10051C0003FF06C0EE81FF812591EE83FF8305C0AA
:10052C00AE81BF812D91AE83BF830E94ED0350300D
:10053C0009F051503150EACF4BC020E3EE81FF81DE
:10054C000E946F04E887F987EE81FF813296EE8373
:10055C00FF83E885F985AA85BB85AE17BF0750F0E8
:10056C002F5FA885B985EA85FB85EA1BFB0BEA871B
:10057C00FB87EFCF2A3328F003FF02C0295F01C0AD
:10058C00295D04FD1AC0213320F4A885B985119783
:10059C0009F409C0531710F000FF01C013C020E28A
:1005AC0007FF0BC020E3006102FF07C00B7F4A93DB
:1005BC000E94FA03503009F051500E94ED03503064
:1005CC0009F051503150A885B985129708F0B5CF74
:1005DC0000FF08C0503031F05150E0E2EA930E9425
:1005EC00FA03F8CF10E0E0CEAC85BD850E946B0419
:1005FC000E947F0464960895FF92F82E26970E941D
:10060C007A0420E030E00E941204309719F4EFEFE6
:10061C00FFEF28C00E941904309719F1DE011696DD
:10062C000E9438048D010E941204EE83FF830E9405
:10063C001904E887F987DE011A960E9438040E9493
:10064C006B04FA93EA931A930A93EEE8F1E0FA93A7
:10065C00EA93DE011A969CDE9F01AE81BF81E0E039
:10066C00EC93F9010E9481042A96FF900895AA93B5
:10067C00E5B3EF70AE2FE881E07FEA2BE5BB8DE0B0
:10068C008A95F1F7AA9A8DE08A95F1F7AA988DE0F0
:10069C008A95F1F777C0AA93A881E9DFE881E29502
:1006AC00E883A881E4DF85E88A95F1F76BC0AA930B
:1006BC00E881F0E0EB58FD4FE081A981AE0FEBDF54
:1006CC005980488022960895A2E00E942004ACE054
:1006DC00E2DFA1E00E942004E0E04E2E5E2E0895A1
:1006EC00AA93A881AA3011F0571448F0E0E0EA93DD
:1006FC004394A42DDCDFA881AA3009F443C05394A1
:10070C00A89AA881C8DFA8983DC0BA93AA931A9357
:10071C00A981BA81ED91A983BA831E2FE03019F01B
:10072C00A12FDEDFF5CF188123960895AA93E4B3A9
:10073C00E06FE4BBA29AA09AA19AAA98A898A9984B
:10074C007880E881E058E0937702E881E054E09308
:10075C007802A4E1B0E00E942E040E9426040E94BC
:10076C0026040E942604A0E282DF88EC90E0019728
:10077C00F1F7A8E290DFA4E08EDFA5E88CDFA6E01D
:10078C008ADFA2DF21960895BA93AA93A991B99111
:10079C00EE27FF276D91662311F03196FBCF08955C
:1007AC00BA93AA93AA27BB27E991F9910590002047
:1007BC0011F01196FBCFFD010895E2BBA881B98120
:1007CC000C942E040E945804DF010C94A7002A9369
:1007DC00AD85BE85EF85F88909950895E889F98975
:1007EC003497E88BF98B0895AD85BE85EF85F88934
:1007FC0009950895A889B98914960E946B04EE8313
:10080C00FF83AE81BF810895A889B98914960E948F
:10081C006B04EA87FB870895DE011E960E9438045C
:10082C000E946B040895DE011C960E9438040E94FD
:10083C006B0408950E945103A3E0B0E00C942E04C5
:10084C00A0E30E943D0388EC90E00197F1F7089536
:10085C00109639F080ED97E00197F1F7A895119774
:10086C00C9F708950024AF0DB01D0895F195E195D9
:10087C00F0400895F695E795F695E79508950024D0
:10088C00112490E1AA0FBB1F001C111C0E1A1F0A89
:10089C0018F40E0E1F1E01C0A1609A9599F7FD0168
:1008AC00D001089504D0EBDF0EF4E0DF0895E89456
:1008BC00F7FF02C0DBDF6894B7FF06C0A095B095C8
:1008CC00119600F8039400FA0895ED91FC9111979C
:1008DC0008950590F491E02D08957A936A93FA9314
:1008EC00EA9308955A934A933A932A931A930A9344
:1008FC0008955D814C813B812A811981088108957D
:00000001FF
