:0A0000000C9430000C9400000C94E6
:10000A0000000C945D000C9400000C9400000C9409
:10001A0000000C946B000C9400000C9400000C94EB
:10002A0000000C9400000C9400000C9400000C9446
:10003A0000000C9400000C9400000C9400000C9436
:10004A0000000C9400000C94000000000000040062
:10005A00040054000000F894EE27ECBBF1E0FBBF6B
:10006A00EBBFE5BF8DE0A2E0BB27ED938A95E9F7E8
:10007A0080E098E0A0E6ED930197E9F7E8E5F0E083
:10008A0085919591009761F0A591B591059015908C
:10009A00BF01F00105900D920197E1F7FB01F0CF46
:1000AA00EFE5EDBFE8E0EEBFC0E6D2E00C948400D5
:1000BA00EA93FA93EFB7EA93E1E0F0E0E419F5097D
:1000CA002F01E991EFBFF991E99118950A92EA9304
:1000DA00FA93EFB7EA93042C052859F4F301319601
:1000EA003F01E9E0F0E0E615F7051CF4F3013A9761
:1000FA003F01E991EFBFF991E99109901895EFEF66
:10010A00E4BBEBB7E06EEBBFEAE0E5BFE0E0E4BFDB
:10011A00E0EEEABFE0E0EFBDECE0EEBDE0E0EDBD11
:10012A00ECBDE7BDE6BDEAE7EBBDE2E1EABDE0E032
:10013A00E9BDE8BDE2E1E9BF789465BAFECFFFCF39
:00000001FF
